{
  "fileName": "Box.sol",
  "contractName": "Box",
  "source": "// contracts/Box.sol\r\n// SPDX-License-Identifier: MIT\r\npragma solidity ^0.6.0;\r\n\r\n\r\n\r\ncontract Box {\r\n    uint256 private value;\r\n\r\n    // Emitted when the stored value changes\r\n    event ValueChanged(uint256 newValue);\r\n\r\n    // Stores a new value in the contract\r\n    function store(uint256 newValue) public {\r\n        value = newValue;\r\n        emit ValueChanged(newValue);\r\n    }\r\n\r\n    // Reads the last stored value\r\n    function retrieve() public view returns (uint256) {\r\n        return value;\r\n    }\r\n}",
  "sourcePath": "contracts\\Box.sol",
  "abi": [
    {
      "anonymous": false,
      "inputs": [
        {
          "indexed": false,
          "internalType": "uint256",
          "name": "newValue",
          "type": "uint256"
        }
      ],
      "name": "ValueChanged",
      "type": "event"
    },
    {
      "inputs": [],
      "name": "retrieve",
      "outputs": [
        {
          "internalType": "uint256",
          "name": "",
          "type": "uint256"
        }
      ],
      "stateMutability": "view",
      "type": "function"
    },
    {
      "inputs": [
        {
          "internalType": "uint256",
          "name": "newValue",
          "type": "uint256"
        }
      ],
      "name": "store",
      "outputs": [],
      "stateMutability": "nonpayable",
      "type": "function"
    }
  ],
  "bytecode": "0x608060405234801561001057600080fd5b5060fe8061001f6000396000f3fe6080604052348015600f57600080fd5b506004361060325760003560e01c80632e64cec11460375780636057361d146053575b600080fd5b603d607e565b6040518082815260200191505060405180910390f35b607c60048036036020811015606757600080fd5b81019080803590602001909291905050506087565b005b60008054905090565b806000819055507f93fe6d397c74fdf1402a8b72e47b68512f0510d7b98a4bc4cbdf6ac7108b3c59816040518082815260200191505060405180910390a15056fea26469706673582212206fdafb2522db7dd0eadce82991e16c540e1b6f28f699d68555b1af672d8c3f9264736f6c634300060a0033",
  "compiler": {
    "name": "solc",
    "version": "0.6.10+commit.00c0fcaf.Emscripten.clang",
    "optimizer": {
      "enabled": false,
      "runs": 200
    },
    "evmVersion": "petersburg"
  }
}